{
  "contractName": "OEGenesis",
  "abi": [
    {
      "inputs": [
        {
          "internalType": "uint256",
          "name": "maxSupply",
          "type": "uint256"
        },
        {
          "internalType": "uint256",
          "name": "mintPrice",
          "type": "uint256"
        },
        {
          "internalType": "uint256",
          "name": "maxMint",
          "type": "uint256"
        },
        {
          "internalType": "string",
          "name": "BaseURI",
          "type": "string"
        },
        {
          "internalType": "string",
          "name": "name",
          "type": "string"
        },
        {
          "internalType": "string",
          "name": "symbol",
          "type": "string"
        }
      ],
      "stateMutability": "nonpayable",
      "type": "constructor"
    },
    {
      "anonymous": false,
      "inputs": [
        {
          "indexed": true,
          "internalType": "address",
          "name": "owner",
          "type": "address"
        },
        {
          "indexed": true,
          "internalType": "address",
          "name": "approved",
          "type": "address"
        },
        {
          "indexed": true,
          "internalType": "uint256",
          "name": "tokenId",
          "type": "uint256"
        }
      ],
      "name": "Approval",
      "type": "event"
    },
    {
      "anonymous": false,
      "inputs": [
        {
          "indexed": true,
          "internalType": "address",
          "name": "owner",
          "type": "address"
        },
        {
          "indexed": true,
          "internalType": "address",
          "name": "operator",
          "type": "address"
        },
        {
          "indexed": false,
          "internalType": "bool",
          "name": "approved",
          "type": "bool"
        }
      ],
      "name": "ApprovalForAll",
      "type": "event"
    },
    {
      "anonymous": false,
      "inputs": [
        {
          "indexed": true,
          "internalType": "address",
          "name": "previousOwner",
          "type": "address"
        },
        {
          "indexed": true,
          "internalType": "address",
          "name": "newOwner",
          "type": "address"
        }
      ],
      "name": "OwnershipTransferred",
      "type": "event"
    },
    {
      "anonymous": false,
      "inputs": [
        {
          "indexed": true,
          "internalType": "address",
          "name": "from",
          "type": "address"
        },
        {
          "indexed": true,
          "internalType": "address",
          "name": "to",
          "type": "address"
        },
        {
          "indexed": true,
          "internalType": "uint256",
          "name": "tokenId",
          "type": "uint256"
        }
      ],
      "name": "Transfer",
      "type": "event"
    },
    {
      "inputs": [
        {
          "internalType": "address",
          "name": "to",
          "type": "address"
        },
        {
          "internalType": "uint256",
          "name": "tokenId",
          "type": "uint256"
        }
      ],
      "name": "approve",
      "outputs": [],
      "stateMutability": "nonpayable",
      "type": "function"
    },
    {
      "inputs": [
        {
          "internalType": "address",
          "name": "owner",
          "type": "address"
        }
      ],
      "name": "balanceOf",
      "outputs": [
        {
          "internalType": "uint256",
          "name": "",
          "type": "uint256"
        }
      ],
      "stateMutability": "view",
      "type": "function"
    },
    {
      "inputs": [
        {
          "internalType": "uint256",
          "name": "tokenId",
          "type": "uint256"
        }
      ],
      "name": "getApproved",
      "outputs": [
        {
          "internalType": "address",
          "name": "",
          "type": "address"
        }
      ],
      "stateMutability": "view",
      "type": "function"
    },
    {
      "inputs": [
        {
          "internalType": "address",
          "name": "owner",
          "type": "address"
        },
        {
          "internalType": "address",
          "name": "operator",
          "type": "address"
        }
      ],
      "name": "isApprovedForAll",
      "outputs": [
        {
          "internalType": "bool",
          "name": "",
          "type": "bool"
        }
      ],
      "stateMutability": "view",
      "type": "function"
    },
    {
      "inputs": [],
      "name": "name",
      "outputs": [
        {
          "internalType": "string",
          "name": "",
          "type": "string"
        }
      ],
      "stateMutability": "view",
      "type": "function"
    },
    {
      "inputs": [],
      "name": "owner",
      "outputs": [
        {
          "internalType": "address",
          "name": "",
          "type": "address"
        }
      ],
      "stateMutability": "view",
      "type": "function"
    },
    {
      "inputs": [
        {
          "internalType": "uint256",
          "name": "tokenId",
          "type": "uint256"
        }
      ],
      "name": "ownerOf",
      "outputs": [
        {
          "internalType": "address",
          "name": "",
          "type": "address"
        }
      ],
      "stateMutability": "view",
      "type": "function"
    },
    {
      "inputs": [],
      "name": "renounceOwnership",
      "outputs": [],
      "stateMutability": "nonpayable",
      "type": "function"
    },
    {
      "inputs": [
        {
          "internalType": "uint256",
          "name": "_tokenId",
          "type": "uint256"
        },
        {
          "internalType": "uint256",
          "name": "_salePrice",
          "type": "uint256"
        }
      ],
      "name": "royaltyInfo",
      "outputs": [
        {
          "internalType": "address",
          "name": "",
          "type": "address"
        },
        {
          "internalType": "uint256",
          "name": "",
          "type": "uint256"
        }
      ],
      "stateMutability": "view",
      "type": "function"
    },
    {
      "inputs": [
        {
          "internalType": "address",
          "name": "from",
          "type": "address"
        },
        {
          "internalType": "address",
          "name": "to",
          "type": "address"
        },
        {
          "internalType": "uint256",
          "name": "tokenId",
          "type": "uint256"
        }
      ],
      "name": "safeTransferFrom",
      "outputs": [],
      "stateMutability": "nonpayable",
      "type": "function"
    },
    {
      "inputs": [
        {
          "internalType": "address",
          "name": "from",
          "type": "address"
        },
        {
          "internalType": "address",
          "name": "to",
          "type": "address"
        },
        {
          "internalType": "uint256",
          "name": "tokenId",
          "type": "uint256"
        },
        {
          "internalType": "bytes",
          "name": "_data",
          "type": "bytes"
        }
      ],
      "name": "safeTransferFrom",
      "outputs": [],
      "stateMutability": "nonpayable",
      "type": "function"
    },
    {
      "inputs": [
        {
          "internalType": "address",
          "name": "operator",
          "type": "address"
        },
        {
          "internalType": "bool",
          "name": "approved",
          "type": "bool"
        }
      ],
      "name": "setApprovalForAll",
      "outputs": [],
      "stateMutability": "nonpayable",
      "type": "function"
    },
    {
      "inputs": [],
      "name": "symbol",
      "outputs": [
        {
          "internalType": "string",
          "name": "",
          "type": "string"
        }
      ],
      "stateMutability": "view",
      "type": "function"
    },
    {
      "inputs": [
        {
          "internalType": "uint256",
          "name": "index",
          "type": "uint256"
        }
      ],
      "name": "tokenByIndex",
      "outputs": [
        {
          "internalType": "uint256",
          "name": "",
          "type": "uint256"
        }
      ],
      "stateMutability": "view",
      "type": "function"
    },
    {
      "inputs": [
        {
          "internalType": "address",
          "name": "owner",
          "type": "address"
        },
        {
          "internalType": "uint256",
          "name": "index",
          "type": "uint256"
        }
      ],
      "name": "tokenOfOwnerByIndex",
      "outputs": [
        {
          "internalType": "uint256",
          "name": "",
          "type": "uint256"
        }
      ],
      "stateMutability": "view",
      "type": "function"
    },
    {
      "inputs": [],
      "name": "totalSupply",
      "outputs": [
        {
          "internalType": "uint256",
          "name": "",
          "type": "uint256"
        }
      ],
      "stateMutability": "view",
      "type": "function"
    },
    {
      "inputs": [
        {
          "internalType": "address",
          "name": "from",
          "type": "address"
        },
        {
          "internalType": "address",
          "name": "to",
          "type": "address"
        },
        {
          "internalType": "uint256",
          "name": "tokenId",
          "type": "uint256"
        }
      ],
      "name": "transferFrom",
      "outputs": [],
      "stateMutability": "nonpayable",
      "type": "function"
    },
    {
      "inputs": [
        {
          "internalType": "address",
          "name": "newOwner",
          "type": "address"
        }
      ],
      "name": "transferOwnership",
      "outputs": [],
      "stateMutability": "nonpayable",
      "type": "function"
    },
    {
      "inputs": [
        {
          "internalType": "bytes4",
          "name": "interfaceId",
          "type": "bytes4"
        }
      ],
      "name": "supportsInterface",
      "outputs": [
        {
          "internalType": "bool",
          "name": "",
          "type": "bool"
        }
      ],
      "stateMutability": "view",
      "type": "function"
    },
    {
      "inputs": [
        {
          "internalType": "address",
          "name": "addr",
          "type": "address"
        }
      ],
      "name": "isGenesis",
      "outputs": [
        {
          "internalType": "bool",
          "name": "",
          "type": "bool"
        }
      ],
      "stateMutability": "view",
      "type": "function"
    },
    {
      "inputs": [
        {
          "internalType": "uint256",
          "name": "tokenId",
          "type": "uint256"
        }
      ],
      "name": "verifyTokenId",
      "outputs": [
        {
          "internalType": "bool",
          "name": "",
          "type": "bool"
        }
      ],
      "stateMutability": "view",
      "type": "function"
    },
    {
      "inputs": [
        {
          "internalType": "address",
          "name": "tokenAddress",
          "type": "address"
        }
      ],
      "name": "setTokenContract",
      "outputs": [],
      "stateMutability": "nonpayable",
      "type": "function"
    },
    {
      "inputs": [],
      "name": "getTokenContract",
      "outputs": [
        {
          "internalType": "address",
          "name": "",
          "type": "address"
        }
      ],
      "stateMutability": "view",
      "type": "function"
    },
    {
      "inputs": [
        {
          "internalType": "uint256",
          "name": "tokenId",
          "type": "uint256"
        }
      ],
      "name": "tokenURI",
      "outputs": [
        {
          "internalType": "string",
          "name": "",
          "type": "string"
        }
      ],
      "stateMutability": "view",
      "type": "function"
    },
    {
      "inputs": [
        {
          "internalType": "string",
          "name": "baseURI_",
          "type": "string"
        }
      ],
      "name": "updateBaseURI",
      "outputs": [],
      "stateMutability": "nonpayable",
      "type": "function"
    },
    {
      "inputs": [
        {
          "internalType": "uint8",
          "name": "numToMint",
          "type": "uint8"
        }
      ],
      "name": "teamMint",
      "outputs": [],
      "stateMutability": "nonpayable",
      "type": "function"
    },
    {
      "inputs": [
        {
          "internalType": "address[]",
          "name": "addresses",
          "type": "address[]"
        },
        {
          "internalType": "uint8",
          "name": "numAllowedToMint",
          "type": "uint8"
        }
      ],
      "name": "addToWhitelist",
      "outputs": [],
      "stateMutability": "nonpayable",
      "type": "function"
    },
    {
      "inputs": [
        {
          "internalType": "address[]",
          "name": "addresses",
          "type": "address[]"
        }
      ],
      "name": "removeFromWhitelist",
      "outputs": [],
      "stateMutability": "nonpayable",
      "type": "function"
    },
    {
      "inputs": [
        {
          "internalType": "address",
          "name": "addr",
          "type": "address"
        }
      ],
      "name": "getWhitelist",
      "outputs": [
        {
          "internalType": "bool",
          "name": "",
          "type": "bool"
        }
      ],
      "stateMutability": "view",
      "type": "function"
    },
    {
      "inputs": [
        {
          "internalType": "uint8",
          "name": "numToMint",
          "type": "uint8"
        }
      ],
      "name": "mintWhitelist",
      "outputs": [],
      "stateMutability": "payable",
      "type": "function"
    },
    {
      "inputs": [],
      "name": "isWhitelistMintOpen",
      "outputs": [
        {
          "internalType": "bool",
          "name": "",
          "type": "bool"
        }
      ],
      "stateMutability": "view",
      "type": "function"
    },
    {
      "inputs": [],
      "name": "openMintWhitelist",
      "outputs": [],
      "stateMutability": "nonpayable",
      "type": "function"
    },
    {
      "inputs": [],
      "name": "pauseMintWhitelist",
      "outputs": [],
      "stateMutability": "nonpayable",
      "type": "function"
    },
    {
      "inputs": [
        {
          "internalType": "uint8",
          "name": "numToMint",
          "type": "uint8"
        }
      ],
      "name": "mint",
      "outputs": [],
      "stateMutability": "payable",
      "type": "function"
    },
    {
      "inputs": [],
      "name": "isPublicMintOpen",
      "outputs": [
        {
          "internalType": "bool",
          "name": "",
          "type": "bool"
        }
      ],
      "stateMutability": "view",
      "type": "function"
    },
    {
      "inputs": [],
      "name": "openMint",
      "outputs": [],
      "stateMutability": "nonpayable",
      "type": "function"
    },
    {
      "inputs": [],
      "name": "pauseMint",
      "outputs": [],
      "stateMutability": "nonpayable",
      "type": "function"
    },
    {
      "inputs": [],
      "name": "getMaxMint",
      "outputs": [
        {
          "internalType": "uint256",
          "name": "",
          "type": "uint256"
        }
      ],
      "stateMutability": "view",
      "type": "function"
    },
    {
      "inputs": [],
      "name": "getMintPrice",
      "outputs": [
        {
          "internalType": "uint256",
          "name": "",
          "type": "uint256"
        }
      ],
      "stateMutability": "view",
      "type": "function"
    },
    {
      "inputs": [
        {
          "internalType": "uint256",
          "name": "mintPrice",
          "type": "uint256"
        }
      ],
      "name": "setMintPrice",
      "outputs": [],
      "stateMutability": "nonpayable",
      "type": "function"
    },
    {
      "inputs": [
        {
          "internalType": "uint256",
          "name": "tokenId",
          "type": "uint256"
        }
      ],
      "name": "getKeyLevel",
      "outputs": [
        {
          "internalType": "uint256",
          "name": "",
          "type": "uint256"
        }
      ],
      "stateMutability": "view",
      "type": "function"
    },
    {
      "inputs": [
        {
          "internalType": "uint256",
          "name": "tokenId",
          "type": "uint256"
        },
        {
          "internalType": "uint256",
          "name": "tokenLevel",
          "type": "uint256"
        }
      ],
      "name": "setKeyLevel",
      "outputs": [],
      "stateMutability": "nonpayable",
      "type": "function"
    },
    {
      "inputs": [
        {
          "internalType": "address",
          "name": "receiver",
          "type": "address"
        },
        {
          "internalType": "uint96",
          "name": "feeNumerator",
          "type": "uint96"
        }
      ],
      "name": "setDefaultRoyalty",
      "outputs": [],
      "stateMutability": "nonpayable",
      "type": "function"
    },
    {
      "inputs": [],
      "name": "withdraw",
      "outputs": [],
      "stateMutability": "nonpayable",
      "type": "function"
    }
  ],
  "bytecode": "0x60806040523480156200001157600080fd5b50604051620033de380380620033de8339810160408190526200003491620001c3565b8181600062000044838262000301565b50600162000053828262000301565b505050620000706200006a620000a860201b60201c565b620000ac565b600c805461ffff60a01b19169055600f84905560108690556011859055600e6200009b848262000301565b50505050505050620003cd565b3390565b600c80546001600160a01b038381166001600160a01b0319831681179093556040519116919082907f8be0079c531659141344cd1fd0a4f28419497f9722a3daafe3b4186f6b6457e090600090a35050565b634e487b7160e01b600052604160045260246000fd5b600082601f8301126200012657600080fd5b81516001600160401b0380821115620001435762000143620000fe565b604051601f8301601f19908116603f011681019082821181831017156200016e576200016e620000fe565b816040528381526020925086838588010111156200018b57600080fd5b600091505b83821015620001af578582018301518183018401529082019062000190565b600093810190920192909252949350505050565b60008060008060008060c08789031215620001dd57600080fd5b86516020880151604089015160608a015192985090965094506001600160401b03808211156200020c57600080fd5b6200021a8a838b0162000114565b945060808901519150808211156200023157600080fd5b6200023f8a838b0162000114565b935060a08901519150808211156200025657600080fd5b506200026589828a0162000114565b9150509295509295509295565b600181811c908216806200028757607f821691505b602082108103620002a857634e487b7160e01b600052602260045260246000fd5b50919050565b601f821115620002fc57600081815260208120601f850160051c81016020861015620002d75750805b601f850160051c820191505b81811015620002f857828155600101620002e3565b5050505b505050565b81516001600160401b038111156200031d576200031d620000fe565b62000335816200032e845462000272565b84620002ae565b602080601f8311600181146200036d5760008415620003545750858301515b600019600386901b1c1916600185901b178555620002f8565b600085815260208120601f198616915b828110156200039e578886015182559484019460019091019084016200037d565b5085821015620003bd5787850151600019600388901b60f8161c191681555b5050505050600190811b01905550565b61300180620003dd6000396000f3fe6080604052600436106102675760003560e01c806360e8ad4711610144578063a4435dfd116100b6578063c87b56dd1161007a578063c87b56dd14610703578063cd85cdb514610723578063e985e9c514610738578063f2efca0e14610781578063f2fde38b146107a1578063f4a0a528146107c157600080fd5b8063a4435dfd1461067a578063a7f93ebd14610699578063b88d4fde146106ae578063bbcd5bbe146106ce578063bce6d672146106ee57600080fd5b8063715018a611610108578063715018a6146105d25780637b671780146105e75780638da5cb5b14610607578063931688cb1461062557806395d89b4114610645578063a22cb4651461065a57600080fd5b806360e8ad471461053f5780636352211e1461055f5780636a59477c1461057f5780636ecd23061461059f57806370a08231146105b257600080fd5b806328b7bede116101dd5780633850b4bc116101a15780633850b4bc146104955780633ccfd60b146104aa57806342842e0e146104bf5780634f6ccce7146104df57806351251320146104ff578063548db1741461051f57600080fd5b806328b7bede146103e35780632a55205a146104015780632f745c591461044057806330edc0f5146104605780633135b8661461048057600080fd5b806316e745c01161022f57806316e745c01461033d57806318160ddd1461035d57806318f52c481461037c5780631f46452f1461039b57806323b872dd146103b057806324ec277c146103d057600080fd5b806301ffc9a71461026c57806304634d8d146102a157806306fdde03146102c3578063081812fc146102e5578063095ea7b31461031d575b600080fd5b34801561027857600080fd5b5061028c610287366004612626565b6107e1565b60405190151581526020015b60405180910390f35b3480156102ad57600080fd5b506102c16102bc36600461265a565b6107f2565b005b3480156102cf57600080fd5b506102d8610833565b60405161029891906126ed565b3480156102f157600080fd5b50610305610300366004612700565b6108c5565b6040516001600160a01b039091168152602001610298565b34801561032957600080fd5b506102c1610338366004612719565b61094d565b34801561034957600080fd5b5061028c610358366004612700565b610a62565b34801561036957600080fd5b506008545b604051908152602001610298565b34801561038857600080fd5b50600c54600160a81b900460ff1661028c565b3480156103a757600080fd5b50600f5461036e565b3480156103bc57600080fd5b506102c16103cb366004612743565b610a6d565b6102c16103de366004612790565b610a9e565b3480156103ef57600080fd5b506012546001600160a01b0316610305565b34801561040d57600080fd5b5061042161041c3660046127ab565b610d0b565b604080516001600160a01b039093168352602083019190915201610298565b34801561044c57600080fd5b5061036e61045b366004612719565b610db9565b34801561046c57600080fd5b5061028c61047b3660046127cd565b610e4f565b34801561048c57600080fd5b506102c1610e85565b3480156104a157600080fd5b506102c1610ebe565b3480156104b657600080fd5b506102c1610efd565b3480156104cb57600080fd5b506102c16104da366004612743565b610f56565b3480156104eb57600080fd5b5061036e6104fa366004612700565b610f71565b34801561050b57600080fd5b506102c161051a36600461282d565b611004565b34801561052b57600080fd5b506102c161053a366004612881565b6110a8565b34801561054b57600080fd5b5061028c61055a3660046127cd565b611147565b34801561056b57600080fd5b5061030561057a366004612700565b611152565b34801561058b57600080fd5b506102c161059a3660046127ab565b6111c9565b6102c16105ad366004612790565b61122a565b3480156105be57600080fd5b5061036e6105cd3660046127cd565b61148f565b3480156105de57600080fd5b506102c1611516565b3480156105f357600080fd5b506102c1610602366004612790565b61154c565b34801561061357600080fd5b50600c546001600160a01b0316610305565b34801561063157600080fd5b506102c161064036600461294f565b61168e565b34801561065157600080fd5b506102d86116c4565b34801561066657600080fd5b506102c1610675366004612998565b6116d3565b34801561068657600080fd5b50600c54600160a01b900460ff1661028c565b3480156106a557600080fd5b5060115461036e565b3480156106ba57600080fd5b506102c16106c93660046129c9565b6116de565b3480156106da57600080fd5b506102c16106e93660046127cd565b611710565b3480156106fa57600080fd5b506102c161175c565b34801561070f57600080fd5b506102d861071e366004612700565b61179b565b34801561072f57600080fd5b506102c1611866565b34801561074457600080fd5b5061028c610753366004612a45565b6001600160a01b03918216600090815260056020908152604080832093909416825291909152205460ff1690565b34801561078d57600080fd5b5061036e61079c366004612700565b61189f565b3480156107ad57600080fd5b506102c16107bc3660046127cd565b6118d9565b3480156107cd57600080fd5b506102c16107dc366004612700565b611974565b60006107ec826119a3565b92915050565b600c546001600160a01b031633146108255760405162461bcd60e51b815260040161081c90612a78565b60405180910390fd5b61082f82826119c8565b5050565b60606000805461084290612aad565b80601f016020809104026020016040519081016040528092919081815260200182805461086e90612aad565b80156108bb5780601f10610890576101008083540402835291602001916108bb565b820191906000526020600020905b81548152906001019060200180831161089e57829003601f168201915b5050505050905090565b60006108d082611ac5565b6109315760405162461bcd60e51b815260206004820152602c60248201527f4552433732313a20617070726f76656420717565727920666f72206e6f6e657860448201526b34b9ba32b73a103a37b5b2b760a11b606482015260840161081c565b506000908152600460205260409020546001600160a01b031690565b600061095882611152565b9050806001600160a01b0316836001600160a01b0316036109c55760405162461bcd60e51b815260206004820152602160248201527f4552433732313a20617070726f76616c20746f2063757272656e74206f776e656044820152603960f91b606482015260840161081c565b336001600160a01b03821614806109e157506109e18133610753565b610a535760405162461bcd60e51b815260206004820152603860248201527f4552433732313a20617070726f76652063616c6c6572206973206e6f74206f7760448201527f6e6572206e6f7220617070726f76656420666f7220616c6c0000000000000000606482015260840161081c565b610a5d8383611ae2565b505050565b60006107ec82611ac5565b610a773382611b50565b610a935760405162461bcd60e51b815260040161081c90612ae1565b610a5d838383611c3a565b333b15610abd5760405162461bcd60e51b815260040161081c90612b32565b6000610ac860085490565b90503460ff8316610aeb5760405162461bcd60e51b815260040161081c90612b76565b600c54600160a81b900460ff16610b145760405162461bcd60e51b815260040161081c90612bcb565b601054610b2460ff851684612c29565b1115610b425760405162461bcd60e51b815260040161081c90612c3c565b336000908152600d602052604090205460ff9081169084161115610bce5760405162461bcd60e51b815260206004820152603760248201527f4f452047454e455349533a20746f6b656e20616d6f756e74207065722074726160448201527f6e73616374696f6e206973207265736374726963746564000000000000000000606482015260840161081c565b808360ff16610bdc60115490565b610be69190612c73565b1115610c045760405162461bcd60e51b815260040161081c90612c8a565b336000908152600d602052604081208054859290610c2690849060ff16612cdb565b92506101000a81548160ff021916908360ff1602179055506000600190505b8360ff168111610d0157610c6233610c5d8386612c29565b611de1565b600160136000610c728487612c29565b81526020810191909152604001600020556012546001600160a01b03166306d2f46d610c9e8386612c29565b6040518263ffffffff1660e01b8152600401610cbc91815260200190565b600060405180830381600087803b158015610cd657600080fd5b505af1158015610cea573d6000803e3d6000fd5b505050508080610cf990612cf4565b915050610c45565b50610a5d81611dfb565b6000828152600b602090815260408083208151808301909252546001600160a01b038116808352600160a01b9091046001600160601b0316928201929092528291610d80575060408051808201909152600a546001600160a01b0381168252600160a01b90046001600160601b031660208201525b602081015160009061271090610d9f906001600160601b031687612c73565b610da99190612d23565b91519350909150505b9250929050565b6000610dc48361148f565b8210610e265760405162461bcd60e51b815260206004820152602b60248201527f455243373231456e756d657261626c653a206f776e657220696e646578206f7560448201526a74206f6620626f756e647360a81b606482015260840161081c565b506001600160a01b03919091166000908152600660209081526040808320938352929052205490565b6001600160a01b0381166000908152600d602052604081205460ff1615610e7857506001919050565b506000919050565b919050565b600c546001600160a01b03163314610eaf5760405162461bcd60e51b815260040161081c90612a78565b600c805460ff60a81b19169055565b600c546001600160a01b03163314610ee85760405162461bcd60e51b815260040161081c90612a78565b600c805460ff60a81b1916600160a81b179055565b600c546001600160a01b03163314610f275760405162461bcd60e51b815260040161081c90612a78565b6040514790339082156108fc029083906000818181858888f1935050505015801561082f573d6000803e3d6000fd5b610a5d838383604051806020016040528060008152506116de565b6000610f7c60085490565b8210610fdf5760405162461bcd60e51b815260206004820152602c60248201527f455243373231456e756d657261626c653a20676c6f62616c20696e646578206f60448201526b7574206f6620626f756e647360a01b606482015260840161081c565b60088281548110610ff257610ff2612d37565b90600052602060002001549050919050565b600c546001600160a01b0316331461102e5760405162461bcd60e51b815260040161081c90612a78565b60005b828110156110a25781600d600086868581811061105057611050612d37565b905060200201602081019061106591906127cd565b6001600160a01b031681526020810191909152604001600020805460ff191660ff929092169190911790558061109a81612cf4565b915050611031565b50505050565b600c546001600160a01b031633146110d25760405162461bcd60e51b815260040161081c90612a78565b60005b81811015610a5d576000600d60008585858181106110f5576110f5612d37565b905060200201602081019061110a91906127cd565b6001600160a01b031681526020810191909152604001600020805460ff191660ff929092169190911790558061113f81612cf4565b9150506110d5565b60006107ec82611e46565b6000818152600260205260408120546001600160a01b0316806107ec5760405162461bcd60e51b815260206004820152602960248201527f4552433732313a206f776e657220717565727920666f72206e6f6e657869737460448201526832b73a103a37b5b2b760b91b606482015260840161081c565b600c546001600160a01b031633146111f35760405162461bcd60e51b815260040161081c90612a78565b6111fc82611ac5565b6112185760405162461bcd60e51b815260040161081c90612d4d565b60009182526013602052604090912055565b333b156112495760405162461bcd60e51b815260040161081c90612b32565b600061125460085490565b90503460ff83166112775760405162461bcd60e51b815260040161081c90612b76565b600c54600160a01b900460ff166112a05760405162461bcd60e51b815260040161081c90612bcb565b6010546112b060ff851684612c29565b11156112ce5760405162461bcd60e51b815260040161081c90612c3c565b600f548360ff1611156113325760405162461bcd60e51b815260206004820152602660248201527f4f452047454e455349533a206d696e74207265737472696374656420746f2031604482015265103a37b5b2b760d11b606482015260840161081c565b600f5461133e3361148f565b1061139f5760405162461bcd60e51b815260206004820152602b60248201527f4f452047454e455349533a2074686973206164647265737320697320616c726560448201526a6164792047656e6573697360a81b606482015260840161081c565b808360ff166113ad60115490565b6113b79190612c73565b11156113d55760405162461bcd60e51b815260040161081c90612c8a565b60015b8360ff168111610d01576113f033610c5d8386612c29565b6001601360006114008487612c29565b81526020810191909152604001600020556012546001600160a01b03166306d2f46d61142c8386612c29565b6040518263ffffffff1660e01b815260040161144a91815260200190565b600060405180830381600087803b15801561146457600080fd5b505af1158015611478573d6000803e3d6000fd5b50505050808061148790612cf4565b9150506113d8565b60006001600160a01b0382166114fa5760405162461bcd60e51b815260206004820152602a60248201527f4552433732313a2062616c616e636520717565727920666f7220746865207a65604482015269726f206164647265737360b01b606482015260840161081c565b506001600160a01b031660009081526003602052604090205490565b600c546001600160a01b031633146115405760405162461bcd60e51b815260040161081c90612a78565b61154a6000611e72565b565b600c546001600160a01b031633146115765760405162461bcd60e51b815260040161081c90612a78565b600061158160085490565b905060008260ff16116115a65760405162461bcd60e51b815260040161081c90612b76565b6010546115b660ff841683612c29565b11156115d45760405162461bcd60e51b815260040161081c90612c3c565b60015b8260ff168111610a5d576115ef33610c5d8385612c29565b6001601360006115ff8486612c29565b81526020810191909152604001600020556012546001600160a01b03166306d2f46d61162b8385612c29565b6040518263ffffffff1660e01b815260040161164991815260200190565b600060405180830381600087803b15801561166357600080fd5b505af1158015611677573d6000803e3d6000fd5b50505050808061168690612cf4565b9150506115d7565b600c546001600160a01b031633146116b85760405162461bcd60e51b815260040161081c90612a78565b600e61082f8282612de3565b60606001805461084290612aad565b61082f338383611ec4565b6116e83383611b50565b6117045760405162461bcd60e51b815260040161081c90612ae1565b6110a284848484611f92565b600c546001600160a01b0316331461173a5760405162461bcd60e51b815260040161081c90612a78565b601280546001600160a01b0319166001600160a01b0392909216919091179055565b600c546001600160a01b031633146117865760405162461bcd60e51b815260040161081c90612a78565b600c805460ff60a01b1916600160a01b179055565b60606117a682611ac5565b61180a5760405162461bcd60e51b815260206004820152602f60248201527f4552433732314d657461646174613a2055524920717565727920666f72206e6f60448201526e3732bc34b9ba32b73a103a37b5b2b760891b606482015260840161081c565b6000611814611fc5565b90506000815111611834576040518060200160405280600081525061185f565b8061183e84611fd4565b60405160200161184f929190612ea3565b6040516020818303038152906040525b9392505050565b600c546001600160a01b031633146118905760405162461bcd60e51b815260040161081c90612a78565b600c805460ff60a01b19169055565b60006118aa82611ac5565b6118c65760405162461bcd60e51b815260040161081c90612d4d565b5060009081526013602052604090205490565b600c546001600160a01b031633146119035760405162461bcd60e51b815260040161081c90612a78565b6001600160a01b0381166119685760405162461bcd60e51b815260206004820152602660248201527f4f776e61626c653a206e6577206f776e657220697320746865207a65726f206160448201526564647265737360d01b606482015260840161081c565b61197181611e72565b50565b600c546001600160a01b0316331461199e5760405162461bcd60e51b815260040161081c90612a78565b601155565b60006001600160e01b0319821663152a902d60e11b14806107ec57506107ec826120d5565b6127106001600160601b0382161115611a365760405162461bcd60e51b815260206004820152602a60248201527f455243323938313a20726f79616c7479206665652077696c6c206578636565646044820152692073616c65507269636560b01b606482015260840161081c565b6001600160a01b038216611a8c5760405162461bcd60e51b815260206004820152601960248201527f455243323938313a20696e76616c696420726563656976657200000000000000604482015260640161081c565b604080518082019091526001600160a01b039092168083526001600160601b039091166020909201829052600160a01b90910217600a55565b6000908152600260205260409020546001600160a01b0316151590565b600081815260046020526040902080546001600160a01b0319166001600160a01b0384169081179091558190611b1782611152565b6001600160a01b03167f8c5be1e5ebec7d5bd14f71427d1e84f3dd0314c0f7b2291e5b200ac8c7c3b92560405160405180910390a45050565b6000611b5b82611ac5565b611bbc5760405162461bcd60e51b815260206004820152602c60248201527f4552433732313a206f70657261746f7220717565727920666f72206e6f6e657860448201526b34b9ba32b73a103a37b5b2b760a11b606482015260840161081c565b6000611bc783611152565b9050806001600160a01b0316846001600160a01b03161480611c0e57506001600160a01b0380821660009081526005602090815260408083209388168352929052205460ff165b80611c325750836001600160a01b0316611c27846108c5565b6001600160a01b0316145b949350505050565b826001600160a01b0316611c4d82611152565b6001600160a01b031614611cb15760405162461bcd60e51b815260206004820152602560248201527f4552433732313a207472616e736665722066726f6d20696e636f72726563742060448201526437bbb732b960d91b606482015260840161081c565b6001600160a01b038216611d135760405162461bcd60e51b8152602060048201526024808201527f4552433732313a207472616e7366657220746f20746865207a65726f206164646044820152637265737360e01b606482015260840161081c565b611d1e8383836120fa565b611d29600082611ae2565b6001600160a01b0383166000908152600360205260408120805460019290611d52908490612ee2565b90915550506001600160a01b0382166000908152600360205260408120805460019290611d80908490612c29565b909155505060008181526002602052604080822080546001600160a01b0319166001600160a01b0386811691821790925591518493918716917fddf252ad1be2c89b69c2b068fc378daa952ba7f163c4a11628f55a4df523b3ef91a4505050565b61082f828260405180602001604052806000815250612105565b80611e0e600c546001600160a01b031690565b6001600160a01b03166108fc829081150290604051600060405180830381858888f19350505050158015610a5d573d6000803e3d6000fd5b600080611e528361148f565b90508015611e635750600192915050565b50600092915050565b50919050565b600c80546001600160a01b038381166001600160a01b0319831681179093556040519116919082907f8be0079c531659141344cd1fd0a4f28419497f9722a3daafe3b4186f6b6457e090600090a35050565b816001600160a01b0316836001600160a01b031603611f255760405162461bcd60e51b815260206004820152601960248201527f4552433732313a20617070726f766520746f2063616c6c657200000000000000604482015260640161081c565b6001600160a01b03838116600081815260056020908152604080832094871680845294825291829020805460ff191686151590811790915591519182527f17307eab39ab6107e8899845ad3d59bd9653f200f220920489ca2b5937696c31910160405180910390a3505050565b611f9d848484611c3a565b611fa984848484612138565b6110a25760405162461bcd60e51b815260040161081c90612ef5565b6060600e805461084290612aad565b606081600003611ffb5750506040805180820190915260018152600360fc1b602082015290565b8160005b8115612025578061200f81612cf4565b915061201e9050600a83612d23565b9150611fff565b60008167ffffffffffffffff811115612040576120406128c3565b6040519080825280601f01601f19166020018201604052801561206a576020820181803683370190505b5090505b8415611c325761207f600183612ee2565b915061208c600a86612f47565b612097906030612c29565b60f81b8183815181106120ac576120ac612d37565b60200101906001600160f81b031916908160001a9053506120ce600a86612d23565b945061206e565b60006001600160e01b0319821663780e9d6360e01b14806107ec57506107ec82612239565b610a5d838383612289565b61210f8383612341565b61211c6000848484612138565b610a5d5760405162461bcd60e51b815260040161081c90612ef5565b60006001600160a01b0384163b1561222e57604051630a85bd0160e11b81526001600160a01b0385169063150b7a029061217c903390899088908890600401612f5b565b6020604051808303816000875af19250505080156121b7575060408051601f3d908101601f191682019092526121b491810190612f98565b60015b612214573d8080156121e5576040519150601f19603f3d011682016040523d82523d6000602084013e6121ea565b606091505b50805160000361220c5760405162461bcd60e51b815260040161081c90612ef5565b805181602001fd5b6001600160e01b031916630a85bd0160e11b149050611c32565b506001949350505050565b60006001600160e01b031982166380ac58cd60e01b148061226a57506001600160e01b03198216635b5e139f60e01b145b806107ec57506301ffc9a760e01b6001600160e01b03198316146107ec565b6001600160a01b0383166122e4576122df81600880546000838152600960205260408120829055600182018355919091527ff3f7a9fe364faab93b216da50a3214154f22a0a2b415b23a84c8169e8b636ee30155565b612307565b816001600160a01b0316836001600160a01b031614612307576123078382612480565b6001600160a01b03821661231e57610a5d8161251d565b826001600160a01b0316826001600160a01b031614610a5d57610a5d82826125cc565b6001600160a01b0382166123975760405162461bcd60e51b815260206004820181905260248201527f4552433732313a206d696e7420746f20746865207a65726f2061646472657373604482015260640161081c565b6123a081611ac5565b156123ed5760405162461bcd60e51b815260206004820152601c60248201527f4552433732313a20746f6b656e20616c7265616479206d696e74656400000000604482015260640161081c565b6123f9600083836120fa565b6001600160a01b0382166000908152600360205260408120805460019290612422908490612c29565b909155505060008181526002602052604080822080546001600160a01b0319166001600160a01b03861690811790915590518392907fddf252ad1be2c89b69c2b068fc378daa952ba7f163c4a11628f55a4df523b3ef908290a45050565b6000600161248d8461148f565b6124979190612ee2565b6000838152600760205260409020549091508082146124ea576001600160a01b03841660009081526006602090815260408083208584528252808320548484528184208190558352600790915290208190555b5060009182526007602090815260408084208490556001600160a01b039094168352600681528383209183525290812055565b60085460009061252f90600190612ee2565b6000838152600960205260408120546008805493945090928490811061255757612557612d37565b90600052602060002001549050806008838154811061257857612578612d37565b60009182526020808320909101929092558281526009909152604080822084905585825281205560088054806125b0576125b0612fb5565b6001900381819060005260206000200160009055905550505050565b60006125d78361148f565b6001600160a01b039093166000908152600660209081526040808320868452825280832085905593825260079052919091209190915550565b6001600160e01b03198116811461197157600080fd5b60006020828403121561263857600080fd5b813561185f81612610565b80356001600160a01b0381168114610e8057600080fd5b6000806040838503121561266d57600080fd5b61267683612643565b915060208301356001600160601b038116811461269257600080fd5b809150509250929050565b60005b838110156126b85781810151838201526020016126a0565b50506000910152565b600081518084526126d981602086016020860161269d565b601f01601f19169290920160200192915050565b60208152600061185f60208301846126c1565b60006020828403121561271257600080fd5b5035919050565b6000806040838503121561272c57600080fd5b61273583612643565b946020939093013593505050565b60008060006060848603121561275857600080fd5b61276184612643565b925061276f60208501612643565b9150604084013590509250925092565b803560ff81168114610e8057600080fd5b6000602082840312156127a257600080fd5b61185f8261277f565b600080604083850312156127be57600080fd5b50508035926020909101359150565b6000602082840312156127df57600080fd5b61185f82612643565b60008083601f8401126127fa57600080fd5b50813567ffffffffffffffff81111561281257600080fd5b6020830191508360208260051b8501011115610db257600080fd5b60008060006040848603121561284257600080fd5b833567ffffffffffffffff81111561285957600080fd5b612865868287016127e8565b909450925061287890506020850161277f565b90509250925092565b6000806020838503121561289457600080fd5b823567ffffffffffffffff8111156128ab57600080fd5b6128b7858286016127e8565b90969095509350505050565b634e487b7160e01b600052604160045260246000fd5b600067ffffffffffffffff808411156128f4576128f46128c3565b604051601f8501601f19908116603f0116810190828211818310171561291c5761291c6128c3565b8160405280935085815286868601111561293557600080fd5b858560208301376000602087830101525050509392505050565b60006020828403121561296157600080fd5b813567ffffffffffffffff81111561297857600080fd5b8201601f8101841361298957600080fd5b611c32848235602084016128d9565b600080604083850312156129ab57600080fd5b6129b483612643565b91506020830135801515811461269257600080fd5b600080600080608085870312156129df57600080fd5b6129e885612643565b93506129f660208601612643565b925060408501359150606085013567ffffffffffffffff811115612a1957600080fd5b8501601f81018713612a2a57600080fd5b612a39878235602084016128d9565b91505092959194509250565b60008060408385031215612a5857600080fd5b612a6183612643565b9150612a6f60208401612643565b90509250929050565b6020808252818101527f4f776e61626c653a2063616c6c6572206973206e6f7420746865206f776e6572604082015260600190565b600181811c90821680612ac157607f821691505b602082108103611e6c57634e487b7160e01b600052602260045260246000fd5b60208082526031908201527f4552433732313a207472616e736665722063616c6c6572206973206e6f74206f6040820152701ddb995c881b9bdc88185c1c1c9bdd9959607a1b606082015260800190565b60208082526024908201527f4f452047454e455349533a20416464726573732073686f756c6420626520616e60408201526320454f4160e01b606082015260800190565b60208082526035908201527f4f452047454e455349533a206e756d626572206f6620746f6b656e73206d75736040820152747420626520686967686572207468616e207a65726f60581b606082015260800190565b60208082526028908201527f4f452047454e455349533a207468652073616c652069732063757272656e746c6040820152671e4818db1bdcd95960c21b606082015260800190565b634e487b7160e01b600052601160045260246000fd5b808201808211156107ec576107ec612c13565b6020808252601e908201527f4f452047454e455349533a206d617820737570706c7920726561636865640000604082015260600190565b80820281158282048414176107ec576107ec612c13565b60208082526031908201527f4f452047454e455349533a2076616c7565206f6620746865207472616e7361636040820152701d1a5bdb881a5b9cdd59999a58da595b9d607a1b606082015260800190565b60ff82811682821603908111156107ec576107ec612c13565b600060018201612d0657612d06612c13565b5060010190565b634e487b7160e01b600052601260045260246000fd5b600082612d3257612d32612d0d565b500490565b634e487b7160e01b600052603260045260246000fd5b60208082526028908201527f4f452047454e455349533a20717565727920666f72206e6f6e2d657869737465604082015267373a103a37b5b2b760c11b606082015260800190565b601f821115610a5d57600081815260208120601f850160051c81016020861015612dbc5750805b601f850160051c820191505b81811015612ddb57828155600101612dc8565b505050505050565b815167ffffffffffffffff811115612dfd57612dfd6128c3565b612e1181612e0b8454612aad565b84612d95565b602080601f831160018114612e465760008415612e2e5750858301515b600019600386901b1c1916600185901b178555612ddb565b600085815260208120601f198616915b82811015612e7557888601518255948401946001909101908401612e56565b5085821015612e935787850151600019600388901b60f8161c191681555b5050505050600190811b01905550565b60008351612eb581846020880161269d565b835190830190612ec981836020880161269d565b64173539b7b760d91b9101908152600501949350505050565b818103818111156107ec576107ec612c13565b60208082526032908201527f4552433732313a207472616e7366657220746f206e6f6e20455243373231526560408201527131b2b4bb32b91034b6b83632b6b2b73a32b960711b606082015260800190565b600082612f5657612f56612d0d565b500690565b6001600160a01b0385811682528416602082015260408101839052608060608201819052600090612f8e908301846126c1565b9695505050505050565b600060208284031215612faa57600080fd5b815161185f81612610565b634e487b7160e01b600052603160045260246000fdfea264697066735822122046466327975e39a13608218edd487c9521992ff0a571128fd7c700615474c2d064736f6c63430008110033",
  "immutableReferences": {},
  "source": "// SPDX-License-Identifier: MIT\npragma solidity ^0.8.0;\n\nimport \"./token/ERC721.sol\";\nimport \"./token/extensions/ERC721Enumerable.sol\";\nimport \"./utils/Ownable.sol\";\nimport \"./utils/Address.sol\";\nimport \"./utils/Strings.sol\";\nimport \"./interfaces/IGenesis.sol\";\nimport \"./token/ERC2981.sol\";\n\n\ncontract OEGenesis is ERC721Enumerable, ERC2981, Ownable {\n\n    using Address for address;\n    using Strings for uint256;\n\n    // States if Public Sale is open\n    bool private activePublicSale;\n\n    // States if Whitelist Sale is open\n    bool private activeWhitelistSale;\n\n    // Maps whitelisted addresses with maximum tokens allowed to mint\n    mapping(address => uint8) private _whiteList;\n\n    // Base URI for OE Genesis token metadata\n    string private baseURI;\n\n    // Maximum number of tokens allowed per address\n    uint256 private MAX_MINT;\n\n    // Maximum OE Genesis token supply \n    uint256 private MAX_SUPPLY;\n\n    // OE Genesis mint price\n    uint256 private PRICE_MINT;\n\n    // OEToken contract\n    IGenesis OEToken;\n\n    // OE KEY Level - Token ID to Key Level\n    mapping(uint256 => uint256) private keyLevel;\n\n\n    constructor(uint256 maxSupply, uint256 mintPrice, uint256 maxMint, string memory BaseURI, string memory name, string memory symbol) \n        ERC721(name, symbol) \n    {\n        activePublicSale = false;\n        activeWhitelistSale = false;\n\n        MAX_MINT = maxMint;\n        MAX_SUPPLY = maxSupply; \n        PRICE_MINT = mintPrice;\n\n        baseURI = BaseURI;\n    }\n\n\n\n    /*\n     * {IERC165} - Checks compatibility with inherited standard interfaces\n     */\n    function supportsInterface(bytes4 interfaceId) public view\n        override(ERC721Enumerable, ERC2981)\n        returns (bool)\n    {\n        return super.supportsInterface(interfaceId);\n    }\n\n    /*\n     * {OEGenesis} - Returns true if input address is Genesis \n     */\n    function isGenesis(address addr) external view returns(bool) {\n        return _isGenesis(addr);\n    }\n\n    \n    /*\n     * {OEGenesis} - Returns true if tokenId exists\n     */  \n    function verifyTokenId(uint256 tokenId) external view returns(bool) {\n        return _exists(tokenId);\n    }\n    \n\n    /*\n     * {OEGenesis} - Sets the OEToken contract address\n     */\n    function setTokenContract(address tokenAddress) external onlyOwner {\n        OEToken = IGenesis(tokenAddress);\n    }\n\n    /*\n     * {OEGenesis} - Returns OEToken address\n     */\n    function getTokenContract() public view returns(address) {\n        return address(OEToken); \n    }\n\n\n\n\n    /*\n     * {OEGenesis} - Returns token URI after token is minted\n     */\n    function tokenURI(uint256 tokenId) public view override(ERC721) returns (string memory) {\n        require(\n            _exists(tokenId),\n            \"ERC721Metadata: URI query for nonexistent token\"\n        );\n\n        string memory currentBaseURI = _baseURI();\n    \n        return bytes(currentBaseURI).length > 0\n            ? string(abi.encodePacked(currentBaseURI, tokenId.toString(), \".json\"))\n            : \"\";\n    }\n\n    /*\n     * {OEGenesis} - Returns metadata base URI \n     */\n    function _baseURI() internal view override returns (string memory) {\n        return baseURI;\n    }\n\n    /*\n     * {OEGenesis} - Updates metadata base URI\n     */\n    function updateBaseURI(string memory baseURI_) external onlyOwner {\n        baseURI = baseURI_;\n    }\n\n    \n\n\n    /*\n     * {OEGenesis} - Team mint for OE Genesis\n     */\n    function teamMint(uint8 numToMint) external onlyOwner {\n        uint256 Id = totalSupply();\n        require(\n            numToMint > 0,\n            \"OE GENESIS: number of tokens must be higher than zero\"\n        );\n        require(\n            Id + numToMint <= MAX_SUPPLY,\n            \"OE GENESIS: max supply reached\"\n        );\n\n        for(uint i = 1; i <= numToMint; i++) {\n            _safeMint(msg.sender, Id + i);\n            keyLevel[Id + i] = 1;\n            OEToken.initializeGenesisMembership(Id + i);\n        }\n    }\n\n    /*\n     * {OEGenesis} - Adds new addresses to the Whitelist\n     */\n    function addToWhitelist(address[] calldata addresses, uint8 numAllowedToMint) external onlyOwner {\n        for (uint256 i = 0; i < addresses.length; i++) {\n            _whiteList[addresses[i]] = numAllowedToMint;\n        }\n    }\n\n    /*\n     * {OEGenesis} - Removes addresses from the Whitelist\n     */\n    function removeFromWhitelist(address[] calldata addresses) external onlyOwner {\n        for (uint256 i = 0; i < addresses.length; i++) {\n            _whiteList[addresses[i]] = 0;\n        }\n    }\n\n    /*\n     * {OEGenesis} - Returns true if address is (still) whitelisted\n     */\n    function getWhitelist(address addr) public view returns(bool) {\n        if(_whiteList[addr] > 0) return true;\n        else return false;\n    }\n\n    /*\n     * {OEGenesis} - Whitelist mint for OE Genesis \n     */\n    function mintWhitelist(uint8 numToMint) external payable {\n        require(!msg.sender.isContract(), \"OE GENESIS: Address should be an EOA\");\n        uint256 Id = totalSupply();\n        uint256 txValue = msg.value;\n        require(numToMint > 0, \"OE GENESIS: number of tokens must be higher than zero\");\n        require(isWhitelistMintOpen(), \"OE GENESIS: the sale is currently closed\");\n        require(Id + numToMint <= MAX_SUPPLY, \"OE GENESIS: max supply reached\");\n        require(numToMint <= _whiteList[msg.sender], \"OE GENESIS: token amount per transaction is resctricted\");\n        require(getMintPrice() * numToMint <= txValue, \"OE GENESIS: value of the transaction insufficient\");\n        \n        _whiteList[msg.sender] -= numToMint;\n\n        for(uint i = 1; i <= numToMint; i++) {\n            _safeMint(msg.sender, Id + i);\n            keyLevel[Id + i] = 1;\n            OEToken.initializeGenesisMembership(Id + i);\n        }\n\n        _transferToOwner(txValue);\n    }\n\n    /*\n     * {OEGenesis} - Returns true if whitelist mint is open\n     */\n    function isWhitelistMintOpen() public view returns(bool) {\n        return activeWhitelistSale;\n    }\n\n    /*\n     * {OEGenesis} - Allows owner to open the whitelist mint\n     */\n    function openMintWhitelist() external onlyOwner {\n        activeWhitelistSale = true;\n    }\n\n    /*\n     * {OEGenesis} - Allows owner to pause the whitelist mint\n     */\n    function pauseMintWhitelist() external onlyOwner {\n        activeWhitelistSale = false;\n    }\n\n\n\n   \n    /*\n     * {OEGenesis} - Public mint for OE Genesis\n     */\n    function mint(uint8 numToMint) external payable {\n        require(!msg.sender.isContract(), \"OE GENESIS: Address should be an EOA\");\n        uint256 Id = totalSupply(); \n        uint256 txValue = msg.value;\n        require(numToMint > 0, \"OE GENESIS: number of tokens must be higher than zero\");\n        require(isPublicMintOpen(), \"OE GENESIS: the sale is currently closed\");\n        require(Id + numToMint <= MAX_SUPPLY, \"OE GENESIS: max supply reached\");\n        require(numToMint <= MAX_MINT, \"OE GENESIS: mint restricted to 1 token\");\n        require(balanceOf(msg.sender) < MAX_MINT, \"OE GENESIS: this address is already Genesis\");\n        require(getMintPrice() * numToMint <= txValue, \"OE GENESIS: value of the transaction insufficient\");\n        \n        for(uint i = 1; i <= numToMint; i++) {\n            _safeMint(msg.sender, Id + i);\n            keyLevel[Id + i] = 1;\n            OEToken.initializeGenesisMembership(Id + i);\n        }\n\n        _transferToOwner(txValue);\n    }\n\n    /*\n     * {OEGenesis} - Returns true if public mint is open\n     */\n    function isPublicMintOpen() public view returns(bool) {\n        return activePublicSale;\n    }\n\n    /*\n     * {OEGenesis} - Allows owner to open the public mint\n     */\n    function openMint() external onlyOwner {\n        activePublicSale = true;\n    }\n\n    /*\n     * {OEGenesis} - Allows owner to pause the public mint\n     */\n    function pauseMint() external onlyOwner {\n        activePublicSale = false;\n    }\n\n\n\n    /*\n     * {OEGenesis} - Returns mint price\n     */\n    function getMaxMint() public view returns(uint256) {\n        return MAX_MINT;\n    }\n\n    /*\n     * {OEGenesis} - Returns mint price\n     */\n    function getMintPrice() public view returns(uint256) {\n        return PRICE_MINT;\n    }\n\n    /*\n     * {OEGenesis} - Allows owner to set mint price\n     */\n    function setMintPrice(uint256 mintPrice) external onlyOwner {\n        PRICE_MINT = mintPrice;\n    }\n\n\n\n\n    /*\n     * {OEGenesis} - Returns OE Key level for tokenId\n     */\n    function getKeyLevel(uint256 tokenId) public view returns(uint256) {\n        require(\n            _exists(tokenId),\n            \"OE GENESIS: query for non-existent token\"\n        );\n\n        return keyLevel[tokenId];\n    }\n\n    /*\n     * {OEGenesis} - Allows owner to set OE Key level for tokenId\n     */\n    function setKeyLevel(uint256 tokenId, uint256 tokenLevel) external onlyOwner {\n        require(\n            _exists(tokenId),\n            \"OE GENESIS: query for non-existent token\"\n        );\n\n        keyLevel[tokenId] = tokenLevel;\n    }\n\n\n\n\n    /*\n     * {OEGenesis} - Allows owner to set default royalties for secondary sales\n     */\n    function setDefaultRoyalty(address receiver, uint96 feeNumerator) public onlyOwner {\n        _setDefaultRoyalty(receiver, feeNumerator);\n    }\n\n\n\n    /*\n     * {OEGenesis} - Allows any contract balance withdrawal\n     */\n    function withdraw() public onlyOwner {\n        uint balance = address(this).balance;\n        payable(msg.sender).transfer(balance);\n    }\n    \n    /*\n     * {OEGenesis} - Transfers input funds to owner address\n     */\n    function _transferToOwner(uint256 txValue) internal {\n        uint balance = txValue;\n        payable(owner()).transfer(balance);\n    }\n\n    \n\n\n    /*\n     * {ERC721, ERC721Enumerable} - Adds functionality to Enumerable extension\n     */\n    function _beforeTokenTransfer(address from, address to, uint256 tokenId)\n        internal\n        override(ERC721Enumerable)\n    {\n        super._beforeTokenTransfer(from, to, tokenId);\n    }\n\n    /*\n     * {OEGenesis} - Returns true if input address is Genesis\n     */\n    function _isGenesis(address _addr) private view returns(bool) {\n        uint256 balance = balanceOf(_addr);\n        if(balance > 0) {\n            return true;\n        } else return false;\n    }\n\n}\n\n",
  "sourcePath": "C:\\Users\\coque\\Documents\\GitHubPrueba\\OExperience\\OExperience\\contracts\\Genesis.sol",
  "compiler": {
    "name": "solc",
    "version": "0.8.17+commit.8df45f5f.Emscripten.clang"
  },
  "schemaVersion": "3.4.11",
  "updatedAt": "2023-01-17T13:04:49.091Z",
  "devdoc": {
    "kind": "dev",
    "methods": {
      "approve(address,uint256)": {
        "details": "See {IERC721-approve}."
      },
      "balanceOf(address)": {
        "details": "See {IERC721-balanceOf}."
      },
      "getApproved(uint256)": {
        "details": "See {IERC721-getApproved}."
      },
      "isApprovedForAll(address,address)": {
        "details": "See {IERC721-isApprovedForAll}."
      },
      "name()": {
        "details": "See {IERC721Metadata-name}."
      },
      "owner()": {
        "details": "Returns the address of the current owner."
      },
      "ownerOf(uint256)": {
        "details": "See {IERC721-ownerOf}."
      },
      "renounceOwnership()": {
        "details": "Leaves the contract without owner. It will not be possible to call `onlyOwner` functions anymore. Can only be called by the current owner. NOTE: Renouncing ownership will leave the contract without an owner, thereby removing any functionality that is only available to the owner."
      },
      "royaltyInfo(uint256,uint256)": {
        "details": "Returns how much royalty is owed and to whom, based on a sale price that may be denominated in any unit of exchange. The royalty amount is denominated and should be paid in that same unit of exchange."
      },
      "safeTransferFrom(address,address,uint256)": {
        "details": "See {IERC721-safeTransferFrom}."
      },
      "safeTransferFrom(address,address,uint256,bytes)": {
        "details": "See {IERC721-safeTransferFrom}."
      },
      "setApprovalForAll(address,bool)": {
        "details": "See {IERC721-setApprovalForAll}."
      },
      "symbol()": {
        "details": "See {IERC721Metadata-symbol}."
      },
      "tokenByIndex(uint256)": {
        "details": "See {IERC721Enumerable-tokenByIndex}."
      },
      "tokenOfOwnerByIndex(address,uint256)": {
        "details": "See {IERC721Enumerable-tokenOfOwnerByIndex}."
      },
      "tokenURI(uint256)": {
        "details": "See {IERC721Metadata-tokenURI}."
      },
      "totalSupply()": {
        "details": "See {IERC721Enumerable-totalSupply}."
      },
      "transferFrom(address,address,uint256)": {
        "details": "See {IERC721-transferFrom}."
      },
      "transferOwnership(address)": {
        "details": "Transfers ownership of the contract to a new account (`newOwner`). Can only be called by the current owner."
      }
    },
    "version": 1
  },
  "userdoc": {
    "kind": "user",
    "methods": {},
    "version": 1
  }
}