{
  "contractName": "OEToken",
  "abi": [
    {
      "inputs": [
        {
          "internalType": "address",
          "name": "genesisAddress",
          "type": "address"
        },
        {
          "internalType": "uint256",
          "name": "initialSupply",
          "type": "uint256"
        },
        {
          "internalType": "uint256",
          "name": "_welcomeGift",
          "type": "uint256"
        },
        {
          "internalType": "uint256",
          "name": "_priceUSD",
          "type": "uint256"
        }
      ],
      "stateMutability": "nonpayable",
      "type": "constructor"
    },
    {
      "anonymous": false,
      "inputs": [
        {
          "indexed": true,
          "internalType": "address",
          "name": "previousOwner",
          "type": "address"
        },
        {
          "indexed": true,
          "internalType": "address",
          "name": "newOwner",
          "type": "address"
        }
      ],
      "name": "OwnershipTransferred",
      "type": "event"
    },
    {
      "inputs": [],
      "name": "ClubOptions",
      "outputs": [
        {
          "internalType": "contract IOEToken",
          "name": "",
          "type": "address"
        }
      ],
      "stateMutability": "view",
      "type": "function"
    },
    {
      "inputs": [],
      "name": "GenesisContract",
      "outputs": [
        {
          "internalType": "contract IGenesis",
          "name": "",
          "type": "address"
        }
      ],
      "stateMutability": "view",
      "type": "function"
    },
    {
      "inputs": [],
      "name": "MainExperience",
      "outputs": [
        {
          "internalType": "contract IOEToken",
          "name": "",
          "type": "address"
        }
      ],
      "stateMutability": "view",
      "type": "function"
    },
    {
      "inputs": [],
      "name": "owner",
      "outputs": [
        {
          "internalType": "address",
          "name": "",
          "type": "address"
        }
      ],
      "stateMutability": "view",
      "type": "function"
    },
    {
      "inputs": [],
      "name": "priceUSD",
      "outputs": [
        {
          "internalType": "uint256",
          "name": "",
          "type": "uint256"
        }
      ],
      "stateMutability": "view",
      "type": "function"
    },
    {
      "inputs": [],
      "name": "renounceOwnership",
      "outputs": [],
      "stateMutability": "nonpayable",
      "type": "function"
    },
    {
      "inputs": [
        {
          "internalType": "address",
          "name": "newOwner",
          "type": "address"
        }
      ],
      "name": "transferOwnership",
      "outputs": [],
      "stateMutability": "nonpayable",
      "type": "function"
    },
    {
      "inputs": [
        {
          "internalType": "address",
          "name": "contractAddress",
          "type": "address"
        }
      ],
      "name": "setNewGenesisAddress",
      "outputs": [],
      "stateMutability": "nonpayable",
      "type": "function"
    },
    {
      "inputs": [
        {
          "internalType": "address",
          "name": "contractAddress",
          "type": "address"
        }
      ],
      "name": "setMainExperienceAddress",
      "outputs": [],
      "stateMutability": "nonpayable",
      "type": "function"
    },
    {
      "inputs": [
        {
          "internalType": "address",
          "name": "contractAddress",
          "type": "address"
        }
      ],
      "name": "setClubOptionsAddress",
      "outputs": [],
      "stateMutability": "nonpayable",
      "type": "function"
    },
    {
      "inputs": [],
      "name": "getGenesisAddress",
      "outputs": [
        {
          "internalType": "address",
          "name": "",
          "type": "address"
        }
      ],
      "stateMutability": "view",
      "type": "function"
    },
    {
      "inputs": [],
      "name": "getMainExperienceAddress",
      "outputs": [
        {
          "internalType": "address",
          "name": "",
          "type": "address"
        }
      ],
      "stateMutability": "view",
      "type": "function"
    },
    {
      "inputs": [],
      "name": "getClubOptionsAddress",
      "outputs": [
        {
          "internalType": "address",
          "name": "",
          "type": "address"
        }
      ],
      "stateMutability": "view",
      "type": "function"
    },
    {
      "inputs": [],
      "name": "getWelcomeGift",
      "outputs": [
        {
          "internalType": "uint256",
          "name": "",
          "type": "uint256"
        }
      ],
      "stateMutability": "view",
      "type": "function"
    },
    {
      "inputs": [
        {
          "internalType": "uint8",
          "name": "keyLevel",
          "type": "uint8"
        }
      ],
      "name": "getYieldRate",
      "outputs": [
        {
          "internalType": "uint256",
          "name": "",
          "type": "uint256"
        }
      ],
      "stateMutability": "view",
      "type": "function"
    },
    {
      "inputs": [
        {
          "internalType": "uint256",
          "name": "newWelcomeGift",
          "type": "uint256"
        }
      ],
      "name": "setWelcomeGift",
      "outputs": [],
      "stateMutability": "nonpayable",
      "type": "function"
    },
    {
      "inputs": [
        {
          "internalType": "uint8[]",
          "name": "level",
          "type": "uint8[]"
        },
        {
          "internalType": "uint256[]",
          "name": "rate",
          "type": "uint256[]"
        }
      ],
      "name": "setYieldRates",
      "outputs": [],
      "stateMutability": "nonpayable",
      "type": "function"
    },
    {
      "inputs": [
        {
          "internalType": "uint256",
          "name": "newPrice",
          "type": "uint256"
        }
      ],
      "name": "setOETokenPrice",
      "outputs": [],
      "stateMutability": "nonpayable",
      "type": "function"
    },
    {
      "inputs": [
        {
          "internalType": "uint256",
          "name": "amount",
          "type": "uint256"
        }
      ],
      "name": "mintOETokens",
      "outputs": [],
      "stateMutability": "nonpayable",
      "type": "function"
    },
    {
      "inputs": [
        {
          "internalType": "uint256",
          "name": "amount",
          "type": "uint256"
        },
        {
          "internalType": "uint256",
          "name": "tokenId",
          "type": "uint256"
        }
      ],
      "name": "transferTokens",
      "outputs": [],
      "stateMutability": "nonpayable",
      "type": "function"
    },
    {
      "inputs": [
        {
          "internalType": "uint256",
          "name": "tokenId",
          "type": "uint256"
        }
      ],
      "name": "getBalanceOE",
      "outputs": [
        {
          "internalType": "uint256",
          "name": "",
          "type": "uint256"
        }
      ],
      "stateMutability": "view",
      "type": "function"
    },
    {
      "inputs": [],
      "name": "getCurrentSupply",
      "outputs": [
        {
          "internalType": "uint256",
          "name": "",
          "type": "uint256"
        }
      ],
      "stateMutability": "view",
      "type": "function"
    },
    {
      "inputs": [],
      "name": "getBankBalance",
      "outputs": [
        {
          "internalType": "uint256",
          "name": "",
          "type": "uint256"
        }
      ],
      "stateMutability": "view",
      "type": "function"
    },
    {
      "inputs": [
        {
          "internalType": "uint256",
          "name": "tokenId",
          "type": "uint256"
        },
        {
          "internalType": "int256",
          "name": "amount",
          "type": "int256"
        }
      ],
      "name": "buyOETokensWithETH",
      "outputs": [],
      "stateMutability": "payable",
      "type": "function"
    },
    {
      "inputs": [
        {
          "internalType": "uint256",
          "name": "tokenId",
          "type": "uint256"
        },
        {
          "internalType": "uint256",
          "name": "amount",
          "type": "uint256"
        }
      ],
      "name": "buyOETokensWithUSDC",
      "outputs": [],
      "stateMutability": "nonpayable",
      "type": "function"
    },
    {
      "inputs": [
        {
          "internalType": "uint256",
          "name": "tokenId",
          "type": "uint256"
        }
      ],
      "name": "initializeGenesisMembership",
      "outputs": [],
      "stateMutability": "nonpayable",
      "type": "function"
    },
    {
      "inputs": [
        {
          "internalType": "uint256",
          "name": "amount",
          "type": "uint256"
        },
        {
          "internalType": "uint256",
          "name": "tokenId",
          "type": "uint256"
        }
      ],
      "name": "updateSpendedBalance",
      "outputs": [],
      "stateMutability": "nonpayable",
      "type": "function"
    },
    {
      "inputs": [
        {
          "internalType": "uint256",
          "name": "tokenId",
          "type": "uint256"
        }
      ],
      "name": "getYield",
      "outputs": [
        {
          "internalType": "uint256",
          "name": "",
          "type": "uint256"
        }
      ],
      "stateMutability": "view",
      "type": "function"
    },
    {
      "inputs": [
        {
          "internalType": "uint256",
          "name": "tokenId",
          "type": "uint256"
        }
      ],
      "name": "harvestYield",
      "outputs": [],
      "stateMutability": "nonpayable",
      "type": "function"
    },
    {
      "inputs": [],
      "name": "withdraw",
      "outputs": [],
      "stateMutability": "nonpayable",
      "type": "function"
    }
  ],
  "bytecode": "0x6080604052600380546001600160a01b031916735f4ec3df9cbd43714fe2740f5e3616155c5b841917905534801561003657600080fd5b5060405162001bfd38038062001bfd83398101604081905261005791610115565b610060336100c5565b600480546001600160a01b03199081166001600160a01b03968716179091556001805473a0b86991c6218b36c1d19d4a2e9eb0ce3606eb4890831617905560035460028054919096169116179093556008829055600991909155600a55600c55610160565b600080546001600160a01b038381166001600160a01b0319831681178455604051919092169283917f8be0079c531659141344cd1fd0a4f28419497f9722a3daafe3b4186f6b6457e09190a35050565b6000806000806080858703121561012b57600080fd5b84516001600160a01b038116811461014257600080fd5b60208601516040870151606090970151919890975090945092505050565b611a8d80620001706000396000f3fe6080604052600436106101cd5760003560e01c80635c63ac59116100f75780638fea695911610095578063a2573e5b11610064578063a2573e5b14610507578063a3e0a1c714610525578063ec01b0a414610545578063f2fde38b1461056557600080fd5b80638fea69591461049e57806393a408d7146104b15780639c67f70d146104c75780639c742778146104e757600080fd5b80637a114d62116100d15780637a114d62146104385780637b83b50b146104565780638da5cb5b1461046b5780638f17aade1461048957600080fd5b80635c63ac59146103e35780636391dccb14610403578063715018a61461042357600080fd5b80632b8856151161016f5780633ccfd60b1161013e5780633ccfd60b1461037957806345de25671461038e5780634f3e1efc146103ae57806351531b99146103c357600080fd5b80632b885615146102e957806330c67d501461031957806336b8def8146103395780633a9693e11461035957600080fd5b8063115b03e1116101ab578063115b03e11461025957806314e8415b1461028957806326f3da73146102a9578063283bdb53146102c957600080fd5b806306d2f46d146101d25780630805d884146101f45780630f68933d14610227575b600080fd5b3480156101de57600080fd5b506101f26101ed366004611668565b610585565b005b34801561020057600080fd5b5061021461020f366004611668565b61069d565b6040519081526020015b60405180910390f35b34801561023357600080fd5b506005546001600160a01b03165b6040516001600160a01b03909116815260200161021e565b34801561026557600080fd5b50610214610274366004611681565b60ff166000908152600b602052604090205490565b34801561029557600080fd5b506101f26102a43660046116f7565b6106f3565b3480156102b557600080fd5b506101f26102c4366004611778565b610779565b3480156102d557600080fd5b506101f26102e4366004611668565b6107ec565b3480156102f557600080fd5b50610214610304366004611668565b60009081526007602052604090206003015490565b34801561032557600080fd5b506101f2610334366004611778565b61081b565b34801561034557600080fd5b506101f2610354366004611795565b61088e565b34801561036557600080fd5b506101f2610374366004611778565b610a71565b34801561038557600080fd5b506101f2610ae4565b34801561039a57600080fd5b506101f26103a9366004611795565b610c3d565b3480156103ba57600080fd5b50600854610214565b3480156103cf57600080fd5b506101f26103de366004611668565b610d58565b3480156103ef57600080fd5b506101f26103fe366004611668565b610dd0565b34801561040f57600080fd5b50600454610241906001600160a01b031681565b34801561042f57600080fd5b506101f2610fd8565b34801561044457600080fd5b506006546001600160a01b0316610241565b34801561046257600080fd5b50600954610214565b34801561047757600080fd5b506000546001600160a01b0316610241565b34801561049557600080fd5b50600a54610214565b6101f26104ac366004611795565b61100e565b3480156104bd57600080fd5b50610214600c5481565b3480156104d357600080fd5b506101f26104e2366004611795565b611162565b3480156104f357600080fd5b50600554610241906001600160a01b031681565b34801561051357600080fd5b506004546001600160a01b0316610241565b34801561053157600080fd5b506101f2610540366004611668565b6113af565b34801561055157600080fd5b50600654610241906001600160a01b031681565b34801561057157600080fd5b506101f2610580366004611778565b611410565b6004546001600160a01b031633146105e45760405162461bcd60e51b815260206004820152601a60248201527f4f45546f6b656e3a20556e65787065637465642063616c6c657200000000000060448201526064015b60405180910390fd5b600081815260076020526040902054156106565760405162461bcd60e51b815260206004820152602d60248201527f4d61696e20457870657269656e63653a20546f6b656e20494420616c7265616460448201526c1e481a5b9a5d1a585b1a5e9959609a1b60648201526084016105db565b61065f816114a8565b60009081526007602052604090204281557f72c6bfb7988af3a1efa6568f02a999bc52252641c659d85961ca3d372b57d5cf54600190910155565b50565b60008181526007602052604081205481906106b890426117cd565b905060006106c962015180836117fc565b600085815260076020526040812060010154919250906106ea908390611810565b95945050505050565b6000546001600160a01b0316331461071d5760405162461bcd60e51b81526004016105db90611827565b60005b60ff81168411156107725782828260ff168181106107405761074061185c565b60ff84166000908152600b6020908152604090912091029290920135909155508061076a81611872565b915050610720565b5050505050565b6000546001600160a01b031633146107a35760405162461bcd60e51b81526004016105db90611827565b6001600160a01b0381163b6107ca5760405162461bcd60e51b81526004016105db90611891565b600580546001600160a01b0319166001600160a01b0392909216919091179055565b6000546001600160a01b031633146108165760405162461bcd60e51b81526004016105db90611827565b600a55565b6000546001600160a01b031633146108455760405162461bcd60e51b81526004016105db90611827565b6001600160a01b0381163b61086c5760405162461bcd60e51b81526004016105db90611891565b600680546001600160a01b0319166001600160a01b0392909216919091179055565b6005546001600160a01b03163314806108b157506006546001600160a01b031633145b6108fd5760405162461bcd60e51b815260206004820152601a60248201527f4f45546f6b656e3a20556e65787065637465642063616c6c657200000000000060448201526064016105db565b60048054604051625b9d1760e61b81529182018390526001600160a01b0316906316e745c090602401602060405180830381865afa158015610943573d6000803e3d6000fd5b505050506040513d601f19601f8201168201806040525081019061096791906118d9565b6109b35760405162461bcd60e51b815260206004820152601f60248201527f4f4547656e657369733a206e6f6e2d6578697374696e6720746f6b656e49440060448201526064016105db565b600081815260076020526040902060030154821115610a2d5760405162461bcd60e51b815260206004820152603060248201527f4f45546f6b656e3a20496e73756666696369656e742062616c616e636520666f60448201526f39103a3434b99037b832b930ba34b7b760811b60648201526084016105db565b60008181526007602052604081206003018054849290610a4e9084906117cd565b909155505060098054839190600090610a689084906118fb565b90915550505050565b6000546001600160a01b03163314610a9b5760405162461bcd60e51b81526004016105db90611827565b6001600160a01b0381163b610ac25760405162461bcd60e51b81526004016105db90611891565b600480546001600160a01b0319166001600160a01b0392909216919091179055565b6000546001600160a01b03163314610b0e5760405162461bcd60e51b81526004016105db90611827565b6001546040516370a0823160e01b815230600482015247916000916001600160a01b03909116906370a0823190602401602060405180830381865afa158015610b5b573d6000803e3d6000fd5b505050506040513d601f19601f82011682018060405250810190610b7f919061190e565b90508115610bb657604051339083156108fc029084906000818181858888f19350505050158015610bb4573d6000803e3d6000fd5b505b8015610c39576001546040516323b872dd60e01b8152306004820152336024820152604481018390526001600160a01b03909116906323b872dd906064016020604051808303816000875af1158015610c13573d6000803e3d6000fd5b505050506040513d601f19601f82011682018060405250810190610c3791906118d9565b505b5050565b6000546001600160a01b03163314610c675760405162461bcd60e51b81526004016105db90611827565b60048054604051625b9d1760e61b81529182018390526001600160a01b0316906316e745c090602401602060405180830381865afa158015610cad573d6000803e3d6000fd5b505050506040513d601f19601f82011682018060405250810190610cd191906118d9565b610d1d5760405162461bcd60e51b815260206004820152601f60248201527f4f4547656e657369733a206e6f6e2d6578697374696e6720746f6b656e49640060448201526064016105db565b8160086001016000828254610d3291906117cd565b909155505060008181526007602052604081206003018054849290610a689084906118fb565b6000546001600160a01b03163314610d825760405162461bcd60e51b81526004016105db90611827565b60008111610dcb5760405162461bcd60e51b81526020600482015260166024820152754f45546f6b656e3a20696e76616c696420707269636560501b60448201526064016105db565b600c55565b60048054604051625b9d1760e61b81529182018390526001600160a01b0316906316e745c090602401602060405180830381865afa158015610e16573d6000803e3d6000fd5b505050506040513d601f19601f82011682018060405250810190610e3a91906118d9565b610e865760405162461bcd60e51b815260206004820152601f60248201527f4f4547656e657369733a206e6f6e2d6578697374696e6720746f6b656e49440060448201526064016105db565b600480546040516331a9108f60e11b815291820183905233916001600160a01b0390911690636352211e90602401602060405180830381865afa158015610ed1573d6000803e3d6000fd5b505050506040513d601f19601f82011682018060405250810190610ef59190611927565b6001600160a01b031614610f1b5760405162461bcd60e51b81526004016105db90611944565b6000610f268261069d565b905060008111610f845760405162461bcd60e51b815260206004820152602360248201527f4f45546f6b656e3a206e6f7420656e6f75676820746f6b656e7320746f207969604482015262195b1960ea1b60648201526084016105db565b60008281526007602052604081206003018054839290610fa59084906118fb565b909155505060088054829190600090610fbf9084906118fb565b9091555050506000908152600760205260409020429055565b6000546001600160a01b031633146110025760405162461bcd60e51b81526004016105db90611827565b61100c6000611548565b565b600480546040516331a9108f60e11b81529182018490526001600160a01b031690636352211e90602401602060405180830381865afa158015611055573d6000803e3d6000fd5b505050506040513d601f19601f820116820180604052508101906110799190611927565b6001600160a01b0316336001600160a01b0316146110a95760405162461bcd60e51b81526004016105db90611944565b6000600c54826110b9919061198a565b6110cb90670de0b6b3a764000061198a565b905060006110d7611598565b6110e6906402540be40061198a565b90506000816110fd84670de0b6b3a764000061198a565b61110791906119ba565b9050803412156111595760405162461bcd60e51b815260206004820152601b60248201527f4f45546f6b656e3a20496e73756666696369656e742066756e6473000000000060448201526064016105db565b6107723461161d565b600480546040516331a9108f60e11b81529182018490526001600160a01b031690636352211e90602401602060405180830381865afa1580156111a9573d6000803e3d6000fd5b505050506040513d601f19601f820116820180604052508101906111cd9190611927565b6001600160a01b0316336001600160a01b0316146111fd5760405162461bcd60e51b81526004016105db90611944565b6000600c548261120d9190611810565b61121a90620f4240611810565b600154604051636eb1769f60e11b815233600482015230602482015291925082916001600160a01b039091169063dd62ed3e90604401602060405180830381865afa15801561126d573d6000803e3d6000fd5b505050506040513d601f19601f82011682018060405250810190611291919061190e565b10156112ee5760405162461bcd60e51b815260206004820152602660248201527f4f45546f6b656e3a20496e73756666696369656e7420616c6c6f77616e636520604482015265185b5bdd5b9d60d21b60648201526084016105db565b6001546040516323b872dd60e01b8152336004820152306024820152604481018390526001600160a01b03909116906323b872dd906064016020604051808303816000875af1158015611345573d6000803e3d6000fd5b505050506040513d601f19601f8201168201806040525081019061136991906118d9565b50816008600101600082825461137f91906117cd565b9091555050600083815260076020526040812060030180548492906113a59084906118fb565b9091555050505050565b6000546001600160a01b031633146113d95760405162461bcd60e51b81526004016105db90611827565b80600860000160008282546113ee91906118fb565b9091555050600980548291906000906114089084906118fb565b909155505050565b6000546001600160a01b0316331461143a5760405162461bcd60e51b81526004016105db90611827565b6001600160a01b03811661149f5760405162461bcd60e51b815260206004820152602660248201527f4f776e61626c653a206e6577206f776e657220697320746865207a65726f206160448201526564647265737360d01b60648201526084016105db565b61069a81611548565b600a54600954101561150a5760405162461bcd60e51b815260206004820152602560248201527f4f45546f6b656e3a20696e73756666696369656e74204f452042616e6b2062616044820152646c616e636560d81b60648201526084016105db565b600a546009805460009061151f9084906117cd565b9091555050600a54600082815260076020526040812060030180549091906114089084906118fb565b600080546001600160a01b038381166001600160a01b0319831681178455604051919092169283917f8be0079c531659141344cd1fd0a4f28419497f9722a3daafe3b4186f6b6457e09190a35050565b600080600260009054906101000a90046001600160a01b03166001600160a01b031663feaf968c6040518163ffffffff1660e01b815260040160a060405180830381865afa1580156115ee573d6000803e3d6000fd5b505050506040513d601f19601f820116820180604052508101906116129190611a07565b509195945050505050565b806116306000546001600160a01b031690565b6001600160a01b03166108fc829081150290604051600060405180830381858888f19350505050158015610c37573d6000803e3d6000fd5b60006020828403121561167a57600080fd5b5035919050565b60006020828403121561169357600080fd5b813560ff811681146116a457600080fd5b9392505050565b60008083601f8401126116bd57600080fd5b50813567ffffffffffffffff8111156116d557600080fd5b6020830191508360208260051b85010111156116f057600080fd5b9250929050565b6000806000806040858703121561170d57600080fd5b843567ffffffffffffffff8082111561172557600080fd5b611731888389016116ab565b9096509450602087013591508082111561174a57600080fd5b50611757878288016116ab565b95989497509550505050565b6001600160a01b038116811461069a57600080fd5b60006020828403121561178a57600080fd5b81356116a481611763565b600080604083850312156117a857600080fd5b50508035926020909101359150565b634e487b7160e01b600052601160045260246000fd5b818103818111156117e0576117e06117b7565b92915050565b634e487b7160e01b600052601260045260246000fd5b60008261180b5761180b6117e6565b500490565b80820281158282048414176117e0576117e06117b7565b6020808252818101527f4f776e61626c653a2063616c6c6572206973206e6f7420746865206f776e6572604082015260600190565b634e487b7160e01b600052603260045260246000fd5b600060ff821660ff8103611888576118886117b7565b60010192915050565b60208082526028908201527f4f45546f6b656e3a2061646472657373206973206e6f7420636f6e7472616374604082015267206164647265737360c01b606082015260800190565b6000602082840312156118eb57600080fd5b815180151581146116a457600080fd5b808201808211156117e0576117e06117b7565b60006020828403121561192057600080fd5b5051919050565b60006020828403121561193957600080fd5b81516116a481611763565b60208082526026908201527f4f4547656e657369733a2063616c6c6572206973206e6f7420746f6b656e49646040820152651037bbb732b960d11b606082015260800190565b80820260008212600160ff1b841416156119a6576119a66117b7565b81810583148215176117e0576117e06117b7565b6000826119c9576119c96117e6565b600160ff1b8214600019841416156119e3576119e36117b7565b500590565b805169ffffffffffffffffffff81168114611a0257600080fd5b919050565b600080600080600060a08688031215611a1f57600080fd5b611a28866119e8565b9450602086015193506040860151925060608601519150611a4b608087016119e8565b9050929550929590935056fea2646970667358221220f76af7332a63b5e0681e61a95eef49dc055419c7e82a3a59c79678364531ecec64736f6c63430008110033",
  "immutableReferences": {},
  "source": "// SPDX-License-Identifier: MIT\npragma solidity ^0.8.0;\n\nimport \"./utils/Address.sol\";\nimport \"./utils/Ownable.sol\";\nimport \"./interfaces/IGenesis.sol\";\nimport \"./interfaces/standard/IERC20.sol\";\nimport \"./interfaces/IOEToken.sol\";\nimport \"@chainlink/contracts/src/v0.8/interfaces/AggregatorV3Interface.sol\";\n\n\ncontract OEToken is Ownable {\n\n    using Address for address;\n\n    IERC20 USDC_token;\n    address constant USDC = 0xA0b86991c6218b36c1d19D4a2e9Eb0cE3606eB48;\n\n    AggregatorV3Interface internal priceFeed;\n    address oracleFeed = 0x5f4eC3Df9cbd43714FE2740f5E3616155c5b8419;\n\n    IGenesis public GenesisContract;\n    IOEToken public MainExperience;\n    IOEToken public ClubOptions;\n\n    // OE Key data\n    struct OE_KeyHolder {\n        uint256 timestamp;\n        uint256 yieldRate; \n        uint256 totalYielded;\n        uint256 balanceOE;\n    }\n\n    // Token ID => Key Holder\n    mapping(uint256 => OE_KeyHolder) private OEKeyHolder;\n\n\n    // Balance of the OE Bank\n    struct OE_Bank {\n        uint256 currentSupply;\n        uint256 bankBalance;\n    }\n\n    // OE Bank \n    OE_Bank private OEBank;\n\n    // Initial token allocation\n    uint256 private welcomeGift;\n\n    // OE KEY Level => Yield Rate\n    mapping(uint8 => uint256) private _yieldRates;\n\n    // OEToken price in USD\n    uint256 public priceUSD;\n\n\n    \n    constructor(address genesisAddress, uint256 initialSupply, uint256 _welcomeGift, uint256 _priceUSD) {\n        GenesisContract = IGenesis(genesisAddress);\n        USDC_token = IERC20(USDC);\n        priceFeed = AggregatorV3Interface(oracleFeed);\n        \n        OEBank.currentSupply = initialSupply;\n        OEBank.bankBalance = initialSupply;\n\n        welcomeGift = _welcomeGift;\n        priceUSD = _priceUSD;\n    }\n\n\n\n    /*\n     * {OEToken} - Sets new Genesis contract address\n     */\n    function setNewGenesisAddress(address contractAddress) external onlyOwner {\n        require(contractAddress.isContract(), \"OEToken: address is not contract address\");\n        GenesisContract = IGenesis(contractAddress);\n    }\n\n    /*\n     * {OEToken} - Sets Main Experience contract address\n     */\n    function setMainExperienceAddress(address contractAddress) external onlyOwner {\n        require(contractAddress.isContract(), \"OEToken: address is not contract address\");\n        MainExperience = IOEToken(contractAddress);\n    }\n\n    /*\n     * {OEToken} - Sets Club Options contract address\n     */\n    function setClubOptionsAddress(address contractAddress) external onlyOwner {\n        require(contractAddress.isContract(), \"OEToken: address is not contract address\");\n        ClubOptions = IOEToken(contractAddress);\n    }\n\n\n\n    /*\n     * {OEToken} - Gets Genesis contract address\n     */\n    function getGenesisAddress() public view returns(address) {\n        return address(GenesisContract);\n    }\n\n    /*\n     * {OEToken} - Gets MainExperience contract address\n     */\n    function getMainExperienceAddress() public view returns(address) {\n        return address(MainExperience);\n    }\n\n    /*\n     * {OEToken} - Gets ClubOptions contract address\n     */\n    function getClubOptionsAddress() public view returns(address) {\n        return address(ClubOptions);\n    }\n\n\n\n    /*\n     * {OEToken} - Returns Genesis Membership welcome gift\n     */\n    function getWelcomeGift() public view returns(uint256) {\n        return welcomeGift;\n    }\n\n    /*\n     * {OEToken} - Returns OE Token yield rate by OEKey level\n     */\n    function getYieldRate(uint8 keyLevel) public view returns(uint256) {\n        return _yieldRates[keyLevel];\n    }\n\n    /*\n     * {OEToken} - Sets Genesis Membership welcome gift\n     */\n    function setWelcomeGift(uint256 newWelcomeGift) external onlyOwner {\n        welcomeGift = newWelcomeGift;\n    }\n\n   /*\n    * {OEToken} - Set yield rates\n    */\n    function setYieldRates(uint8[] calldata level, uint256[] calldata rate) external onlyOwner {\n        for(uint8 i = 0; i < level.length; i++) {\n            _yieldRates[i] = rate[i];\n        }\n    }\n\n    /*\n    * {OEToken} - Set OEToken price in USD\n    */\n    function setOETokenPrice(uint256 newPrice) external onlyOwner {\n        require(\n            newPrice > 0,\n            \"OEToken: invalid price\"\n        );\n\n        priceUSD = newPrice;\n    }\n\n\n\n\n    /*\n     * {OEToken} - Allows owner to increase utility OEToken supply\n     *\n     * OEToken is not a tradeable token, supply does not affect token value\n     */\n    function mintOETokens(uint256 amount) external onlyOwner {\n        OEBank.currentSupply += amount;\n        OEBank.bankBalance += amount;\n    }\n\n    /*\n     * {OEToken} - Allows owner to transfer tokens to tokenId\n     */\n    function transferTokens(uint256 amount, uint256 tokenId) public onlyOwner {\n        require(\n            GenesisContract.verifyTokenId(tokenId),\n            \"OEGenesis: non-existing tokenId\"\n        );\n\n        OEBank.bankBalance -= amount;\n        OEKeyHolder[tokenId].balanceOE += amount;\n    }\n\n\n\n\n\n    /*\n     * {OEToken} - Returns OEToken balance for tokenId\n     */\n    function getBalanceOE(uint256 tokenId) external view returns(uint256) {\n        return OEKeyHolder[tokenId].balanceOE;\n    }\n\n    /*\n     * {OEToken} - Returns current supply for OEToken\n     */\n    function getCurrentSupply() external view returns(uint256) {\n        return OEBank.currentSupply;\n    }\n\n    /*\n     * {OEToken} - Returns current OE Bank balance of OEToken\n     */\n    function getBankBalance() external view returns(uint256) {\n        return OEBank.bankBalance;\n    }\n\n\n\n\n    /*\n     * {OEToken} - Allows OE Genesis Member to purchase OEToken with ETH\n     */\n    function buyOETokensWithETH(uint tokenId, int amount) public payable {\n        require(\n            msg.sender == GenesisContract.ownerOf(tokenId), \n            \"OEGenesis: caller is not tokenId owner\"\n        );\n\n        int usdPrice = amount * int(priceUSD) * (10 ** 18); // Total price in USD\n        int ethusdRate = ETHUSDrate() * (10 ** 10); // Price in USD * 10^18\n        int weiPrice = usdPrice * (10 ** 18) / ethusdRate; // Amount to spend in wei\n\n        require(\n            int(msg.value) >= weiPrice,\n            \"OEToken: Insufficient funds\"\n        );\n\n        _transferToOwner(msg.value);\n    }\n\n    /*\n     * {OEToken} - Allows OE Genesis Member to purchase OEToken with USDC\n     *\n     * OEToken/USD constant rate\n     */\n    function buyOETokensWithUSDC(uint256 tokenId, uint256 amount) public {\n        require(\n            msg.sender == GenesisContract.ownerOf(tokenId),\n            \"OEGenesis: caller is not tokenId owner\"\n        );\n        \n        uint256 price = amount * priceUSD * (10 ** 6);\n\n        require(\n            USDC_token.allowance(msg.sender, address(this)) >= price,\n            \"OEToken: Insufficient allowance amount\"\n        );\n\n        USDC_token.transferFrom(msg.sender, address(this), price);\n\n        OEBank.bankBalance -= amount;\n        OEKeyHolder[tokenId].balanceOE += amount;\n    }\n\n\n\n   \n    /*\n     * {OEToken} - Sets initial state of OE Genesis Membership and begins yielding\n     */\n    function initializeGenesisMembership(uint256 tokenId) external {\n        require(\n            msg.sender == address(GenesisContract),\n            \"OEToken: Unexpected caller\"\n        );\n        require( \n            OEKeyHolder[tokenId].timestamp == 0,\n            \"Main Experience: Token ID already initialized\"\n        );\n\n        _setInitialBalance(tokenId);\n        _initializeYield(tokenId);\n    }\n\n\n    /*\n     * {OEToken} - Externally updates OEToken balance of tokenID when spending\n     */\n    function updateSpendedBalance(uint256 amount, uint256 tokenId) external {\n        require(\n            msg.sender == address(MainExperience) || msg.sender == address(ClubOptions),\n            \"OEToken: Unexpected caller\"\n        );\n        require(\n            GenesisContract.verifyTokenId(tokenId),\n            \"OEGenesis: non-existing tokenID\"\n        );\n        require(\n            OEKeyHolder[tokenId].balanceOE >= amount,\n            \"OEToken: Insufficient balance for this operation\"\n        );\n\n        OEKeyHolder[tokenId].balanceOE -= amount;\n        OEBank.bankBalance += amount;\n    }\n\n\n\n    /*\n     * {OEToken} - Returns current amount of yielded OEToken by tokenId\n     */\n    function getYield(uint256 tokenId) public view returns(uint256) {\n        uint256 period = (block.timestamp) - (OEKeyHolder[tokenId].timestamp);\n        uint256 multiplier = period / 86400;\n        uint256 result = (OEKeyHolder[tokenId].yieldRate) * multiplier;\n        return result;\n    }\n\n\n    /*\n     * {OEToken} - Allows tokenId owner to harvest yielded OEToken\n     */\n    function harvestYield(uint256 tokenId) external {\n        require(\n            GenesisContract.verifyTokenId(tokenId), \n            \"OEGenesis: non-existing tokenID\"\n        );\n        require(\n            GenesisContract.ownerOf(tokenId) == msg.sender,\n            \"OEGenesis: caller is not tokenId owner\"\n        );\n\n        uint256 amount = getYield(tokenId);\n\n        require(\n            amount > 0,\n            \"OEToken: not enough tokens to yield\"\n        );\n        \n        OEKeyHolder[tokenId].balanceOE += amount;\n        OEBank.currentSupply += amount;\n\n        OEKeyHolder[tokenId].timestamp = block.timestamp;\n    }\n\n\n\n\n    /*\n     * {OEToken} - Set initial Genesis Membership token balance\n     */\n    function _setInitialBalance(uint256 tokenId) internal {\n        require(\n            OEBank.bankBalance >= welcomeGift,\n            \"OEToken: insufficient OE Bank balance\"\n        );\n\n\n        OEBank.bankBalance -= welcomeGift;\n        OEKeyHolder[tokenId].balanceOE += welcomeGift;\n    }\n   \n    /*\n     * {OEToken} - Sets initial token yielding parameters\n     */\n    function _initializeYield(uint256 tokenId) internal {\n        OEKeyHolder[tokenId].timestamp = block.timestamp;\n        OEKeyHolder[tokenId].yieldRate = _yieldRates[1];\n    }\n\n\n\n    /*\n     * {OEToken} - Returns ETH/USD rate\n     */\n    function ETHUSDrate() internal view returns (int) {\n        ( ,int price, , , ) = priceFeed.latestRoundData();\n        return price;\n    }\n\n\n\n\n\n    /*\n     * {OEToken} - Allows any contract balance withdrawal\n     */\n    function withdraw() public onlyOwner {\n        uint balanceETH = address(this).balance;\n        uint balanceUSDC = USDC_token.balanceOf(address(this));\n        if (balanceETH > 0) payable(msg.sender).transfer(balanceETH);\n        if (balanceUSDC > 0) USDC_token.transferFrom(address(this), msg.sender, balanceUSDC);\n    }\n    \n    /*\n     * {OEToken} - Transfers input funds to owner address\n     */\n    function _transferToOwner(uint256 txValue) internal {\n        uint balance = txValue;\n        payable(owner()).transfer(balance);\n    }\n\n\n}",
  "sourcePath": "C:\\Users\\coque\\Documents\\GitHubPrueba\\OExperience\\OExperience\\contracts\\OEToken.sol",
  "compiler": {
    "name": "solc",
    "version": "0.8.17+commit.8df45f5f.Emscripten.clang"
  },
  "schemaVersion": "3.4.11",
  "updatedAt": "2023-01-17T13:04:49.112Z",
  "devdoc": {
    "kind": "dev",
    "methods": {
      "owner()": {
        "details": "Returns the address of the current owner."
      },
      "renounceOwnership()": {
        "details": "Leaves the contract without owner. It will not be possible to call `onlyOwner` functions anymore. Can only be called by the current owner. NOTE: Renouncing ownership will leave the contract without an owner, thereby removing any functionality that is only available to the owner."
      },
      "transferOwnership(address)": {
        "details": "Transfers ownership of the contract to a new account (`newOwner`). Can only be called by the current owner."
      }
    },
    "version": 1
  },
  "userdoc": {
    "kind": "user",
    "methods": {},
    "version": 1
  }
}